{
  "contractName": "GrantsProgram",
  "abi": [
    {
      "inputs": [
        {
          "internalType": "address",
          "name": "_authorized",
          "type": "address"
        },
        {
          "internalType": "uint256",
          "name": "_periodLength",
          "type": "uint256"
        },
        {
          "internalType": "uint256",
          "name": "_amountToPay",
          "type": "uint256"
        },
        {
          "internalType": "bytes[]",
          "name": "_fedsPubKeys",
          "type": "bytes[]"
        }
      ],
      "stateMutability": "nonpayable",
      "type": "constructor"
    },
    {
      "anonymous": false,
      "inputs": [
        {
          "indexed": true,
          "internalType": "address",
          "name": "fedAddress",
          "type": "address"
        },
        {
          "indexed": false,
          "internalType": "uint256",
          "name": "amount",
          "type": "uint256"
        }
      ],
      "name": "FederatorPaid",
      "type": "event"
    },
    {
      "anonymous": false,
      "inputs": [
        {
          "indexed": false,
          "internalType": "uint256",
          "name": "amount",
          "type": "uint256"
        }
      ],
      "name": "FundsReceived",
      "type": "event"
    },
    {
      "anonymous": false,
      "inputs": [
        {
          "indexed": false,
          "internalType": "address",
          "name": "sender",
          "type": "address"
        }
      ],
      "name": "LogWithdrawal",
      "type": "event"
    },
    {
      "anonymous": false,
      "inputs": [
        {
          "indexed": true,
          "internalType": "address",
          "name": "memberAddress",
          "type": "address"
        }
      ],
      "name": "MemberDisabled",
      "type": "event"
    },
    {
      "anonymous": false,
      "inputs": [
        {
          "indexed": true,
          "internalType": "address",
          "name": "memberAddress",
          "type": "address"
        }
      ],
      "name": "MemberEnabled",
      "type": "event"
    },
    {
      "inputs": [],
      "name": "amountToPay",
      "outputs": [
        {
          "internalType": "uint256",
          "name": "",
          "type": "uint256"
        }
      ],
      "stateMutability": "view",
      "type": "function",
      "constant": true
    },
    {
      "inputs": [],
      "name": "authorized",
      "outputs": [
        {
          "internalType": "address",
          "name": "",
          "type": "address"
        }
      ],
      "stateMutability": "view",
      "type": "function",
      "constant": true
    },
    {
      "inputs": [
        {
          "internalType": "address",
          "name": "",
          "type": "address"
        }
      ],
      "name": "bannedAddressesMap",
      "outputs": [
        {
          "internalType": "bool",
          "name": "",
          "type": "bool"
        }
      ],
      "stateMutability": "view",
      "type": "function",
      "constant": true
    },
    {
      "inputs": [
        {
          "internalType": "address",
          "name": "",
          "type": "address"
        }
      ],
      "name": "federatorLastPaid",
      "outputs": [
        {
          "internalType": "uint256",
          "name": "",
          "type": "uint256"
        }
      ],
      "stateMutability": "view",
      "type": "function",
      "constant": true
    },
    {
      "inputs": [
        {
          "internalType": "uint256",
          "name": "",
          "type": "uint256"
        }
      ],
      "name": "fedsPubKeys",
      "outputs": [
        {
          "internalType": "bytes",
          "name": "",
          "type": "bytes"
        }
      ],
      "stateMutability": "view",
      "type": "function",
      "constant": true
    },
    {
      "inputs": [],
      "name": "lastPaid",
      "outputs": [
        {
          "internalType": "uint256",
          "name": "",
          "type": "uint256"
        }
      ],
      "stateMutability": "view",
      "type": "function",
      "constant": true
    },
    {
      "inputs": [],
      "name": "periodLength",
      "outputs": [
        {
          "internalType": "uint256",
          "name": "",
          "type": "uint256"
        }
      ],
      "stateMutability": "view",
      "type": "function",
      "constant": true
    },
    {
      "stateMutability": "payable",
      "type": "receive",
      "payable": true
    },
    {
      "inputs": [
        {
          "internalType": "uint256",
          "name": "newPeriodLength",
          "type": "uint256"
        }
      ],
      "name": "updatePeriodLength",
      "outputs": [],
      "stateMutability": "nonpayable",
      "type": "function"
    },
    {
      "inputs": [
        {
          "internalType": "uint256",
          "name": "newAmountToPay",
          "type": "uint256"
        }
      ],
      "name": "updateAmountToPay",
      "outputs": [],
      "stateMutability": "nonpayable",
      "type": "function"
    },
    {
      "inputs": [
        {
          "internalType": "bytes[]",
          "name": "newFedsPubKeys",
          "type": "bytes[]"
        }
      ],
      "name": "updateFedsPubKeys",
      "outputs": [],
      "stateMutability": "nonpayable",
      "type": "function"
    },
    {
      "inputs": [
        {
          "internalType": "address",
          "name": "member",
          "type": "address"
        }
      ],
      "name": "disableMember",
      "outputs": [],
      "stateMutability": "nonpayable",
      "type": "function"
    },
    {
      "inputs": [
        {
          "internalType": "address",
          "name": "member",
          "type": "address"
        }
      ],
      "name": "enableMember",
      "outputs": [],
      "stateMutability": "nonpayable",
      "type": "function"
    },
    {
      "inputs": [],
      "name": "getRequiredFunds",
      "outputs": [
        {
          "internalType": "uint256",
          "name": "",
          "type": "uint256"
        }
      ],
      "stateMutability": "view",
      "type": "function",
      "constant": true
    },
    {
      "inputs": [],
      "name": "payToFederation",
      "outputs": [],
      "stateMutability": "nonpayable",
      "type": "function"
    },
    {
      "inputs": [
        {
          "internalType": "bytes",
          "name": "fedPubKey",
          "type": "bytes"
        }
      ],
      "name": "getAddressFromPublicKey",
      "outputs": [
        {
          "internalType": "address payable",
          "name": "",
          "type": "address"
        }
      ],
      "stateMutability": "view",
      "type": "function",
      "constant": true
    },
    {
      "inputs": [
        {
          "internalType": "address payable",
          "name": "recoverAddress",
          "type": "address"
        }
      ],
      "name": "withdrawFunds",
      "outputs": [],
      "stateMutability": "nonpayable",
      "type": "function"
    },
    {
      "inputs": [
        {
          "internalType": "bytes",
          "name": "fedPubKey",
          "type": "bytes"
        }
      ],
      "name": "decompressPublicKey",
      "outputs": [
        {
          "internalType": "bytes",
          "name": "",
          "type": "bytes"
        }
      ],
      "stateMutability": "pure",
      "type": "function",
      "constant": true
    }
  ],
  "bytecode": "0x60806040523480156200001157600080fd5b506040516200245838038062002458833981810160405281019062000037919062000443565b600073ffffffffffffffffffffffffffffffffffffffff168473ffffffffffffffffffffffffffffffffffffffff161415620000aa576040517f08c379a0000000000000000000000000000000000000000000000000000000008152600401620000a19062000600565b60405180910390fd5b6000831415620000f1576040517f08c379a0000000000000000000000000000000000000000000000000000000008152600401620000e89062000622565b60405180910390fd5b6000821162000137576040517f08c379a00000000000000000000000000000000000000000000000000000000081526004016200012e9062000644565b60405180910390fd5b83600260006101000a81548173ffffffffffffffffffffffffffffffffffffffff021916908373ffffffffffffffffffffffffffffffffffffffff160217905550826003819055508160048190555080600690805190602001906200019e929190620001a9565b5050505050620007a3565b828054828255906000526020600020908101928215620001fd579160200282015b82811115620001fc578251829080519060200190620001eb92919062000210565b5091602001919060010190620001ca565b5b5090506200020c919062000297565b5090565b828054600181600116156101000203166002900490600052602060002090601f016020900481019282601f106200025357805160ff191683800117855562000284565b8280016001018555821562000284579182015b828111156200028357825182559160200191906001019062000266565b5b509050620002939190620002c8565b5090565b620002c591905b80821115620002c15760008181620002b79190620002f0565b506001016200029e565b5090565b90565b620002ed91905b80821115620002e9576000816000905550600101620002cf565b5090565b90565b50805460018160011615610100020316600290046000825580601f1062000318575062000339565b601f016020900490600052602060002090810190620003389190620002c8565b5b50565b6000815190506200034d816200076f565b92915050565b600082601f8301126200036557600080fd5b81516200037c620003768262000694565b62000666565b9150818183526020840193506020810190508360005b83811015620003c65781518601620003ab8882620003d0565b84526020840193506020830192505060018101905062000392565b5050505092915050565b600082601f830112620003e257600080fd5b8151620003f9620003f382620006bd565b62000666565b915080825260208301602083018583830111156200041657600080fd5b6200042383828462000739565b50505092915050565b6000815190506200043d8162000789565b92915050565b600080600080608085870312156200045a57600080fd5b60006200046a878288016200033c565b94505060206200047d878288016200042c565b935050604062000490878288016200042c565b925050606085015167ffffffffffffffff811115620004ae57600080fd5b620004bc8782880162000353565b91505092959194509250565b6000620004d7602f83620006ea565b91507f4772616e747350726f6772616d3a20417574686f72697a65642061646472657360008301527f732063616e2774206265206e756c6c00000000000000000000000000000000006020830152604082019050919050565b60006200053f603383620006ea565b91507f4772616e747350726f6772616d3a20506572696f64206c656e676874206d757360008301527f742062652067726561746572207468616e2030000000000000000000000000006020830152604082019050919050565b6000620005a7603383620006ea565b91507f4772616e747350726f6772616d3a20416d6f756e7420746f20706179206d757360008301527f742062652067726561746572207468616e2030000000000000000000000000006020830152604082019050919050565b600060208201905081810360008301526200061b81620004c8565b9050919050565b600060208201905081810360008301526200063d8162000530565b9050919050565b600060208201905081810360008301526200065f8162000598565b9050919050565b6000604051905081810181811067ffffffffffffffff821117156200068a57600080fd5b8060405250919050565b600067ffffffffffffffff821115620006ac57600080fd5b602082029050602081019050919050565b600067ffffffffffffffff821115620006d557600080fd5b601f19601f8301169050602081019050919050565b600082825260208201905092915050565b600062000708826200070f565b9050919050565b600073ffffffffffffffffffffffffffffffffffffffff82169050919050565b6000819050919050565b60005b83811015620007595780820151818401526020810190506200073c565b8381111562000769576000848401525b50505050565b6200077a81620006fb565b81146200078657600080fd5b50565b62000794816200072f565b8114620007a057600080fd5b50565b611ca580620007b36000396000f3fe60806040526004361061011f576000357c010000000000000000000000000000000000000000000000000000000090048063795f0eb5116100b2578063c5c4c5b811610081578063c5c4c5b814610380578063d2ca2115146103bd578063d3077bb1146103e8578063e6de7a5114610425578063f47d2a301461044e5761015d565b8063795f0eb5146102d65780637ba13680146102ed578063a78e10cc14610318578063c4b8db46146103555761015d565b8063456cb7c6116100ee578063456cb7c6146102305780635918ba791461025b57806359217bcc1461028457806368742da6146102ad5761015d565b806314725ecf14610162578063194888c21461019f57806323389f79146101ca578063276c1ac0146101f35761015d565b3661015d577fbcdc7071c1beb6dcf2744621e0b29a2f2432ee20812d9ca5e3d5e8f9308d93a3346040516101539190611a69565b60405180910390a1005b600080fd5b34801561016e57600080fd5b5061018960048036038101906101849190611599565b610477565b60405161019691906119ac565b60405180910390f35b3480156101ab57600080fd5b506101b4610497565b6040516101c19190611a69565b60405180910390f35b3480156101d657600080fd5b506101f160048036038101906101ec91906115eb565b6104a8565b005b3480156101ff57600080fd5b5061021a6004803603810190610215919061162c565b610552565b6040516102279190611991565b60405180910390f35b34801561023c57600080fd5b50610245610635565b604051610252919061195b565b60405180910390f35b34801561026757600080fd5b50610282600480360381019061027d9190611599565b61065b565b005b34801561029057600080fd5b506102ab60048036038101906102a691906116ae565b6107e1565b005b3480156102b957600080fd5b506102d460048036038101906102cf91906115c2565b61087b565b005b3480156102e257600080fd5b506102eb6109a3565b005b3480156102f957600080fd5b50610302610cfb565b60405161030f9190611a69565b60405180910390f35b34801561032457600080fd5b5061033f600480360381019061033a91906116ae565b610d01565b60405161034c91906119c7565b60405180910390f35b34801561036157600080fd5b5061036a610dba565b6040516103779190611a69565b60405180910390f35b34801561038c57600080fd5b506103a760048036038101906103a2919061162c565b610dc0565b6040516103b491906119c7565b60405180910390f35b3480156103c957600080fd5b506103d2610f00565b6040516103df9190611a69565b60405180910390f35b3480156103f457600080fd5b5061040f600480360381019061040a9190611599565b610f06565b60405161041c9190611a69565b60405180910390f35b34801561043157600080fd5b5061044c600480360381019061044791906116ae565b610f1e565b005b34801561045a57600080fd5b5061047560048036038101906104709190611599565b610fb8565b005b60006020528060005260406000206000915054906101000a900460ff1681565b600060045460068054905002905090565b600260009054906101000a900473ffffffffffffffffffffffffffffffffffffffff1673ffffffffffffffffffffffffffffffffffffffff163373ffffffffffffffffffffffffffffffffffffffff1614610538576040517f08c379a000000000000000000000000000000000000000000000000000000000815260040161052f90611a29565b60405180910390fd5b806006908051906020019061054e9291906112b0565b5050565b600060603073ffffffffffffffffffffffffffffffffffffffff1663c5c4c5b8846040518263ffffffff167c01000000000000000000000000000000000000000000000000000000000281526004016105ab91906119c7565b60006040518083038186803b1580156105c357600080fd5b505afa1580156105d7573d6000803e3d6000fd5b505050506040513d6000823e3d601f19601f82011682018060405250810190610600919061166d565b9050806040516020016106139190611918565b6040516020818303038152906040528051906020012060019004915050919050565b600260009054906101000a900473ffffffffffffffffffffffffffffffffffffffff1681565b600260009054906101000a900473ffffffffffffffffffffffffffffffffffffffff1673ffffffffffffffffffffffffffffffffffffffff163373ffffffffffffffffffffffffffffffffffffffff16146106eb576040517f08c379a00000000000000000000000000000000000000000000000000000000081526004016106e290611a29565b60405180910390fd5b600015156000808373ffffffffffffffffffffffffffffffffffffffff1673ffffffffffffffffffffffffffffffffffffffff16815260200190815260200160002060009054906101000a900460ff16151514156107de5760016000808373ffffffffffffffffffffffffffffffffffffffff1673ffffffffffffffffffffffffffffffffffffffff16815260200190815260200160002060006101000a81548160ff0219169083151502179055508073ffffffffffffffffffffffffffffffffffffffff167fc1f439e225c695b9b2428a72bcb831256f77e84b8a6042812048ad332593fbbb60405160405180910390a25b50565b600260009054906101000a900473ffffffffffffffffffffffffffffffffffffffff1673ffffffffffffffffffffffffffffffffffffffff163373ffffffffffffffffffffffffffffffffffffffff1614610871576040517f08c379a000000000000000000000000000000000000000000000000000000000815260040161086890611a29565b60405180910390fd5b8060038190555050565b600260009054906101000a900473ffffffffffffffffffffffffffffffffffffffff1673ffffffffffffffffffffffffffffffffffffffff163373ffffffffffffffffffffffffffffffffffffffff161461090b576040517f08c379a000000000000000000000000000000000000000000000000000000000815260040161090290611a29565b60405180910390fd5b8073ffffffffffffffffffffffffffffffffffffffff166108fc3073ffffffffffffffffffffffffffffffffffffffff16319081150290604051600060405180830381858888f19350505050158015610968573d6000803e3d6000fd5b507f9c83dda3a4d55a3e890a8700226b60840862d0cfa5e73e4be7c1ed8c5684d367336040516109989190611976565b60405180910390a150565b3073ffffffffffffffffffffffffffffffffffffffff1663194888c26040518163ffffffff167c010000000000000000000000000000000000000000000000000000000002815260040160206040518083038186803b158015610a0557600080fd5b505afa158015610a19573d6000803e3d6000fd5b505050506040513d601f19601f82011682018060405250810190610a3d91906116d7565b3073ffffffffffffffffffffffffffffffffffffffff16311015610a96576040517f08c379a0000000000000000000000000000000000000000000000000000000008152600401610a8d906119e9565b60405180910390fd5b6000600680549050905060008090505b81811015610cf7576000610b6860068381548110610ac057fe5b906000526020600020018054600181600116156101000203166002900480601f016020809104026020016040519081016040528092919081815260200182805460018160011615610100020316600290048015610b5e5780601f10610b3357610100808354040283529160200191610b5e565b820191906000526020600020905b815481529060010190602001808311610b4157829003601f168201915b5050505050610552565b90506000808273ffffffffffffffffffffffffffffffffffffffff1673ffffffffffffffffffffffffffffffffffffffff16815260200190815260200160002060009054906101000a900460ff16158015610c065750600354600560008373ffffffffffffffffffffffffffffffffffffffff1673ffffffffffffffffffffffffffffffffffffffff16815260200190815260200160002054014210155b15610ce9578073ffffffffffffffffffffffffffffffffffffffff166108fc6004549081150290604051600060405180830381858888f19350505050158015610c53573d6000803e3d6000fd5b5042600560008373ffffffffffffffffffffffffffffffffffffffff1673ffffffffffffffffffffffffffffffffffffffff168152602001908152602001600020819055508073ffffffffffffffffffffffffffffffffffffffff167f7b591e4da0ef0a511090e9032079d1ca0f51dffade4cc35b4e2c753f0b76e4ed600454604051610ce09190611a69565b60405180910390a25b508080600101915050610aa6565b5050565b60045481565b60068181548110610d0e57fe5b906000526020600020016000915090508054600181600116156101000203166002900480601f016020809104026020016040519081016040528092919081815260200182805460018160011615610100020316600290048015610db25780601f10610d8757610100808354040283529160200191610db2565b820191906000526020600020905b815481529060010190602001808311610d9557829003601f168201915b505050505081565b60015481565b60606000610dcf836000611135565b905060028160ff161480610de6575060038160ff16145b610e25576040517f08c379a0000000000000000000000000000000000000000000000000000000008152600401610e1c90611a49565b60405180910390fd5b600060028260ff1614610e39576001610e3c565b60005b90506000610e4b856001611193565b905060007ffffffffffffffffffffffffffffffffffffffffffffffffffffffffefffffc2f905060008180610e7c57fe5b60078380610e8657fe5b8480610e8e57fe5b86870986090890506000610eb08260046001860181610ea957fe5b04856111f1565b90506000600182168660ff161890508460008214610ed057828503610ed2565b825b604051602001610ee392919061192f565b604051602081830303815290604052975050505050505050919050565b60035481565b60056020528060005260406000206000915090505481565b600260009054906101000a900473ffffffffffffffffffffffffffffffffffffffff1673ffffffffffffffffffffffffffffffffffffffff163373ffffffffffffffffffffffffffffffffffffffff1614610fae576040517f08c379a0000000000000000000000000000000000000000000000000000000008152600401610fa590611a29565b60405180910390fd5b8060048190555050565b600260009054906101000a900473ffffffffffffffffffffffffffffffffffffffff1673ffffffffffffffffffffffffffffffffffffffff163373ffffffffffffffffffffffffffffffffffffffff1614611048576040517f08c379a000000000000000000000000000000000000000000000000000000000815260040161103f90611a29565b60405180910390fd5b600115156000808373ffffffffffffffffffffffffffffffffffffffff1673ffffffffffffffffffffffffffffffffffffffff16815260200190815260200160002060009054906101000a900460ff1615151415611132576000808273ffffffffffffffffffffffffffffffffffffffff1673ffffffffffffffffffffffffffffffffffffffff16815260200190815260200160002060006101000a81549060ff02191690558073ffffffffffffffffffffffffffffffffffffffff167f626aee2a62afa82a2e6cb90fc0da28d6ff557542fd013cef0ef21de4df6361eb60405160405180910390a25b50565b6000600182018351101561117e576040517f08c379a000000000000000000000000000000000000000000000000000000000815260040161117590611a09565b60405180910390fd5b60008260018501015190508091505092915050565b600060208201835110156111dc576040517f08c379a00000000000000000000000000000000000000000000000000000000081526004016111d390611a09565b60405180910390fd5b60008260208501015190508091505092915050565b60008084141561120457600090506112a9565b600083141561121657600190506112a9565b600082141561122457600080fd5b6001905060007f800000000000000000000000000000000000000000000000000000000000000090505b60008111156112a757828185161515860a84848509099150826002820485161515860a84848509099150826004820485161515860a84848509099150826008820485161515860a8484850909915060108104905061124e565b505b9392505050565b8280548282559060005260206000209081019282156112ff579160200282015b828111156112fe5782518290805190602001906112ee929190611310565b50916020019190600101906112d0565b5b50905061130c9190611390565b5090565b828054600181600116156101000203166002900490600052602060002090601f016020900481019282601f1061135157805160ff191683800117855561137f565b8280016001018555821561137f579182015b8281111561137e578251825591602001919060010190611363565b5b50905061138c91906113bc565b5090565b6113b991905b808211156113b557600081816113ac91906113e1565b50600101611396565b5090565b90565b6113de91905b808211156113da5760008160009055506001016113c2565b5090565b90565b50805460018160011615610100020316600290046000825580601f106114075750611426565b601f01602090049060005260206000209081019061142591906113bc565b5b50565b60008135905061143881611c2a565b92915050565b60008135905061144d81611c41565b92915050565b600082601f83011261146457600080fd5b813561147761147282611ab1565b611a84565b9150818183526020840193506020810190508360005b838110156114bd57813586016114a388826114c7565b84526020840193506020830192505060018101905061148d565b5050505092915050565b600082601f8301126114d857600080fd5b81356114eb6114e682611ad9565b611a84565b9150808252602083016020830185838301111561150757600080fd5b611512838284611bcd565b50505092915050565b600082601f83011261152c57600080fd5b815161153f61153a82611ad9565b611a84565b9150808252602083016020830185838301111561155b57600080fd5b611566838284611bdc565b50505092915050565b60008135905061157e81611c58565b92915050565b60008151905061159381611c58565b92915050565b6000602082840312156115ab57600080fd5b60006115b984828501611429565b91505092915050565b6000602082840312156115d457600080fd5b60006115e28482850161143e565b91505092915050565b6000602082840312156115fd57600080fd5b600082013567ffffffffffffffff81111561161757600080fd5b61162384828501611453565b91505092915050565b60006020828403121561163e57600080fd5b600082013567ffffffffffffffff81111561165857600080fd5b611664848285016114c7565b91505092915050565b60006020828403121561167f57600080fd5b600082015167ffffffffffffffff81111561169957600080fd5b6116a58482850161151b565b91505092915050565b6000602082840312156116c057600080fd5b60006116ce8482850161156f565b91505092915050565b6000602082840312156116e957600080fd5b60006116f784828501611584565b91505092915050565b61170981611b97565b82525050565b61171881611b4f565b82525050565b61172781611b3d565b82525050565b61173681611b61565b82525050565b600061174782611b05565b6117518185611b10565b9350611761818560208601611bdc565b61176a81611c19565b840191505092915050565b600061178082611b05565b61178a8185611b21565b935061179a818560208601611bdc565b80840191505092915050565b60006117b3603c83611b2c565b91507f4772616e747350726f6772616d3a204e6f7420656e6f7567682066756e64732060008301527f666f7220706179696e6720746f20616c6c20666564657261746f7273000000006020830152604082019050919050565b6000611819601283611b2c565b91507f52656164206f7574206f6620626f756e647300000000000000000000000000006000830152602082019050919050565b6000611859601d83611b2c565b91507f4772616e747350726f6772616d3a204e6f7420617574686f72697a65640000006000830152602082019050919050565b6000611899603483611b2c565b91507f4772616e747350726f6772616d3a2050726f7669646564207075626c6963206b60008301527f6579206973206e6f7420636f6d707265737365640000000000000000000000006020830152604082019050919050565b6118fb81611b8d565b82525050565b61191261190d82611b8d565b611c0f565b82525050565b60006119248284611775565b915081905092915050565b600061193b8285611901565b60208201915061194b8284611901565b6020820191508190509392505050565b6000602082019050611970600083018461171e565b92915050565b600060208201905061198b6000830184611700565b92915050565b60006020820190506119a6600083018461170f565b92915050565b60006020820190506119c1600083018461172d565b92915050565b600060208201905081810360008301526119e1818461173c565b905092915050565b60006020820190508181036000830152611a02816117a6565b9050919050565b60006020820190508181036000830152611a228161180c565b9050919050565b60006020820190508181036000830152611a428161184c565b9050919050565b60006020820190508181036000830152611a628161188c565b9050919050565b6000602082019050611a7e60008301846118f2565b92915050565b6000604051905081810181811067ffffffffffffffff82111715611aa757600080fd5b8060405250919050565b600067ffffffffffffffff821115611ac857600080fd5b602082029050602081019050919050565b600067ffffffffffffffff821115611af057600080fd5b601f19601f8301169050602081019050919050565b600081519050919050565b600082825260208201905092915050565b600081905092915050565b600082825260208201905092915050565b6000611b4882611b6d565b9050919050565b6000611b5a82611b6d565b9050919050565b60008115159050919050565b600073ffffffffffffffffffffffffffffffffffffffff82169050919050565b6000819050919050565b6000611ba282611ba9565b9050919050565b6000611bb482611bbb565b9050919050565b6000611bc682611b6d565b9050919050565b82818337600083830152505050565b60005b83811015611bfa578082015181840152602081019050611bdf565b83811115611c09576000848401525b50505050565b6000819050919050565b6000601f19601f8301169050919050565b611c3381611b3d565b8114611c3e57600080fd5b50565b611c4a81611b4f565b8114611c5557600080fd5b50565b611c6181611b8d565b8114611c6c57600080fd5b5056fea26469706673582212205636c66b879ce8a46d50c6fb5615473bb5ef0c34e47f7a9663bd2439d1bbb1da64736f6c634300060a0033",
  "immutableReferences": {},
  "source": "// SPDX-License-Identifier: MIT\npragma solidity ^0.6.0;\npragma experimental ABIEncoderV2;\n\nimport \"./BytesLib.sol\";\n\ncontract GrantsProgram {\n    event MemberEnabled(address indexed memberAddress);\n    event MemberDisabled(address indexed memberAddress);\n    event FundsReceived(uint256 amount);\n    event FederatorPaid(address indexed fedAddress, uint256 amount);\n    event LogWithdrawal(address sender);\n\n    mapping(address => bool) public bannedAddressesMap;\n    uint256 public lastPaid;\n    address public authorized;\n    uint256 public periodLength;\n    uint256 public amountToPay;\n    mapping(address => uint256) public federatorLastPaid;\n    bytes[] public fedsPubKeys;\n\n    constructor(address _authorized, uint256 _periodLength, uint256 _amountToPay, bytes[] memory _fedsPubKeys) public {\n        require(_authorized != address(0), \"GrantsProgram: Authorized address can't be null\");\n        require(_periodLength != 0, \"GrantsProgram: Period lenght must be greater than 0\");\n        require(_amountToPay > 0, \"GrantsProgram: Amount to pay must be greater than 0\");\n\n        authorized = _authorized;\n        periodLength = _periodLength;\n        amountToPay = _amountToPay;\n        fedsPubKeys = _fedsPubKeys;\n    }\n\n    modifier onlyAuthorized() {\n        require(msg.sender == authorized, \"GrantsProgram: Not authorized\");\n        _;\n    }\n\n    receive() external payable {\n        emit FundsReceived(msg.value);\n    }\n\n    function updatePeriodLength(uint256 newPeriodLength) external onlyAuthorized {\n        periodLength = newPeriodLength;\n    }\n\n    function updateAmountToPay(uint256 newAmountToPay) external onlyAuthorized {\n        amountToPay = newAmountToPay;\n    }\n\n    function updateFedsPubKeys(bytes[] memory newFedsPubKeys) external onlyAuthorized {\n        fedsPubKeys = newFedsPubKeys;\n    }\n\n    function disableMember(address member) external onlyAuthorized {\n        if (bannedAddressesMap[member] == false) {\n            bannedAddressesMap[member] = true;\n            emit MemberDisabled(member);\n        }\n    }\n\n    function enableMember(address member) external onlyAuthorized {\n        if (bannedAddressesMap[member] == true) {\n            delete bannedAddressesMap[member];\n            emit MemberEnabled(member);\n        }\n    }\n\n    function getRequiredFunds() external view returns (uint256) {\n        return fedsPubKeys.length * amountToPay;\n    }\n\n    function payToFederation() external {\n        require(address(this).balance >= this.getRequiredFunds(), \"GrantsProgram: Not enough funds for paying to all federators\");\n\n        uint256 federationSize = fedsPubKeys.length;\n\n        for (uint256 i = 0; i < federationSize; i++) {\n            address payable fedAddress = getAddressFromPublicKey(fedsPubKeys[i]);\n\n            if (!bannedAddressesMap[fedAddress] && block.timestamp >= federatorLastPaid[fedAddress] + periodLength) {\n                fedAddress.transfer(amountToPay);\n                federatorLastPaid[fedAddress] = block.timestamp;\n                emit FederatorPaid(fedAddress, amountToPay);\n            }\n        }\n    }\n\n    function getAddressFromPublicKey(bytes memory fedPubKey) public view returns (address payable) {\n        bytes memory decompressedPublicKey = this.decompressPublicKey(fedPubKey);\n        return payable(address(uint160(uint256(keccak256(abi.encodePacked(decompressedPublicKey))))));\n    }\n\n    function withdrawFunds(address payable recoverAddress) external onlyAuthorized {\n        recoverAddress.transfer(address(this).balance);\n        emit LogWithdrawal(msg.sender);\n    }\n\n    function decompressPublicKey(bytes memory fedPubKey) public pure returns (bytes memory) {\n        uint8 firstByte = BytesLib.toUint8(fedPubKey, 0);\n        require(firstByte == 2 || firstByte == 3, \"GrantsProgram: Provided public key is not compressed\");\n        \n        uint8 compressedPrefix = firstByte == 2 ? 0 : 1;\n        uint256 x = BytesLib.toUint256(fedPubKey, 1);\n        uint256 p = 0xFFFFFFFFFFFFFFFFFFFFFFFFFFFFFFFFFFFFFFFFFFFFFFFFFFFFFFFEFFFFFC2F;\n        uint256 y2 = addmod(mulmod(x, mulmod(x, x, p), p), 7, p);\n        uint256 y_ = expmod(y2, (p + 1) / 4, p);\n        uint256 cmp = compressedPrefix ^ (y_ & 1);\n        return abi.encodePacked(x, (cmp == 0) ? y_ : p - y_);\n    }\n\n    function expmod(uint256 b, uint256 e, uint256 m) internal pure returns (uint256 r) {\n        if (b == 0) return 0;\n        if (e == 0) return 1;\n        if (m == 0) revert();\n        r = 1;\n        uint256 bit = 2**255;\n        assembly {\n            for {} gt(bit, 0) {} {\n                r := mulmod(mulmod(r, r, m),exp(b, iszero(iszero(and(e, bit)))),m)\n                r := mulmod(mulmod(r, r, m), exp(b, iszero(iszero(and(e, div(bit, 2))))), m)\n                r := mulmod(mulmod(r, r, m), exp(b, iszero(iszero(and(e, div(bit, 4))))), m)\n                r := mulmod(mulmod(r, r, m), exp(b, iszero(iszero(and(e, div(bit, 8))))),m)\n                bit := div(bit, 16)\n            }\n        }\n    }\n}\n",
  "sourcePath": "/Users/guidohernanmedina/Code/federation-grants-program/contracts/GrantsProgram.sol",
  "compiler": {
    "name": "solc",
    "version": "0.6.10+commit.00c0fcaf.Emscripten.clang"
  },
  "schemaVersion": "3.2.0",
  "updatedAt": "2020-09-16T12:06:12.374Z",
  "networkType": "ethereum",
  "devdoc": {
    "methods": {}
  },
  "userdoc": {
    "methods": {}
  }
}